:020000040000FA
:10A00000001E0020ADA10000C7A10000C9A10000F2
:10A010000000000000000000000000000000000040
:10A02000000000000000000000000000CBA10000C4
:10A030000000000000000000CDA10000CFA1000042
:10A04000D1A10000D1A10000D1A10000D1A1000048
:10A05000D1A1000000000000D1A10000D1A10000AA
:10A06000D1A10000D1A10000D1A10000D1A1000028
:10A07000D1A10000D1A10000D1A10000D1A1000018
:10A08000D1A10000D1A10000D1A10000D1A1000008
:10A09000D1A10000D1A10000D1A10000D1A10000F8
:10A0A000D1A10000D1A100000000000000000000CC
:10A0B00000000000000000000000000000000000A0
:10A0C00000F002F800F046F80CA030C80838241858
:10A0D0002D18A246671EAB4654465D46AC4201D1E0
:10A0E00000F038F87E460F3E0FCCB64601263342CC
:10A0F00000D0FB1AA246AB4633431847401000007D
:10A1000060100000103A02D378C878C1FAD852071C
:10A1100001D330C830C101D504680C60704700001D
:10A120000023002400250026103A01D378C1FBD873
:10A13000520700D330C100D50B60704710B57829A5
:10A1400002D100F0DBFD10BD002010BD1FB51FBD0A
:10A1500010B510BD00F09BFF1146FFF7F7FF00F0B0
:10A160004BFD00F0B3FF03B4FFF7F2FF03BC00F0B8
:10A17000B9FF000070B505460C46164602E00FCC4C
:10A180000FC5103E102EFAD2082E02D303CC03C501
:10A19000083E042E07D301CC01C5361F03E0217809
:10A1A0002970641C6D1C761EF9D270BD03210C4809
:10A1B00002680A4302600B4802680A4302600A48C8
:10A1C00080470A480047FEE7FEE7FEE7FEE7FEE7B6
:10A1D000FEE7000006480749074A084B70470000A1
:10A1E0002405004054050040F3A20000C1A0000077
:10A1F000000E0020001E0020001600200016002087
:10A200004F485049086070474F48008CC0B2012841
:10A210001FD14D48808C0007000F002819D14A48F3
:10A22000806AF0210840A02806D14748C06A08404B
:10A23000002801D1012070474348806AF02108407E
:10A24000D02806D14048C06A0840002801D101202A
:10A25000F1E70020EFE73C48008CC0B2012812D1A2
:10A260003948808C0007000F00280CD13648806ADE
:10A27000F0210840402806D13348C06A0840002831
:10A2800001D1012070470020FCE72F48008CC0B2AC
:10A2900001282CD12C48808C0007000F002826D1E3
:10A2A0002948806AF0210840002806D12648C06A63
:10A2B0000840002801D1012070472348806AF0211E
:10A2C0000840102806D12048C06A0840002801D163
:10A2D0000120F1E71C48806AF0210840302806D1AF
:10A2E0001948C06A0840002801D10120E4E7002095
:10A2F000E2E710B5FFF7C9FF002805D0134814495D
:10A300004860C81313498861FFF7A5FF002802D0F1
:10A31000012011498860FFF777FF00280ED00F4811
:10A320000068012807D00E480C49086000BF0B48A0
:10A3300000680128FBD1C0200849486110BD000019
:10A340000024F40000090020C00F00F0DFFF07C068
:10A3500000050040006C00400006004000EC064094
:10A360007593000010B5F64C022020616061F5A0E5
:10A37000A061F749E1610121890221620021A16206
:10A380006162E162EFA0A064F249E16410212165FD
:10A390000021A1656165E165EFA1E01D00F076FD9A
:10A3A000EEA1204600F072FD2020A07110BDF7B58F
:10A3B00082B00446174600200190E56800BF20697E
:10A3C00000900098A84203D90098401B461E04E064
:10A3D000A1680098281A401C0E1AA068401BB042C1
:10A3E00001D9304601E0A068401B0646BE4201D2BA
:10A3F000304600E0384606466168481932460399FF
:10A4000000F08CFD01988019019003988019039049
:10A41000BF1BAD19A068A84200D10025E560002F40
:10A42000CDD1019805B0F0BDF7B582B00446154610
:10A43000E668A068871BAF4208D9616888192A4678
:10A44000039900F06BFD7019E06010E001976168FE
:10A450008819019A039900F061FDE81B0190039AA5
:10A46000D1196068019A00F059FD0198E06005B0CB
:10A47000F0BD38B505460C46FF2168460170B94865
:10A48000015D68464170022269462846FFF78FFF4A
:10A4900038BD10B501460A69CB689A4204D88C6869
:10A4A000641EE41AA01801E0D41A601E10BDF7B5AE
:10A4B00084B0174600BFA2480078002801D1FFF7FA
:10A4C00051FF00BF1821049848439D494831461860
:10A4D000059801903569F068029000200390029879
:10A4E000854219D9B068441BBC4201D2204600E025
:10A4F00038460446706841192246019800F00EFD66
:10A500000398001903900198001901903F1B2D1921
:10A51000B068A84200D100250298441BBC4201D279
:10A52000204600E038460446002C0DD070684119E2
:10A530002246019800F0F2FC03980019039001985C
:10A54000001901903F1B2D190398002800D0356198
:10A55000039807B0F0BDF8B504460D46164600BF97
:10A56000324629462046FFF7A2FF074600BF38467D
:10A57000F8BDF7B584B016460598039018210498E5
:10A5800048436F491831441820690290E5680298E1
:10A59000A84236D8A068401E471BB7420AD361685C
:10A5A00048193246039900F0B9FCA819E06001206F
:10A5B00007B0F0BD02983F18B74231D3A068401BE6
:10A5C00001900198B04208D9616848193246039950
:10A5D00000F0A4FCA819E06011E061684819019A34
:10A5E000039900F09BFC0198321A019B0398C11853
:10A5F0006068009000F092FC0198301AE060012041
:10A60000D6E70298401B471EB74209D36168481934
:10A610003246039900F082FCA819E0600120C7E7E8
:10A620000020C5E7F7B582B00746164603980190AB
:10A63000182078434249183140180090009840692A
:10A64000002804D0012811D0022826D11EE000984D
:10A65000FFF71FFF0546B54201D2002405E034464E
:10A66000324601990098FFF7DFFE18E00098FFF7E7
:10A6700010FF0546B54201D2284600E030460446A8
:10A68000224601990098FFF7CFFE08E03246019973
:10A690000098FFF78CFE044601E0002400BF00BFD5
:10A6A000204605B0F0BDF8B504460D46164600BF7D
:10A6B00023480078002801D1FFF754FE00BF00BFF7
:10A6C000324629462046FFF7ADFF074600BF384611
:10A6D000F8BD70B505460C46204600F0FDFB064669
:10A6E000324621462846FFF7DEFF70BD38B501220D
:10A6F00069460020FFF72FFF0446012C02D168466F
:10A70000047801E00024E443204638BD10B500BFC2
:10A71000FFF7ECFF0028FBDB10BD70B500BF084859
:10A720000078002801D1FFF71DFE00BF0448856DA9
:10A73000406DA84201D0012400E00024204670BDF5
:10A74000280D00205465726D696E616C0000000078
:10A7500018090020180D0020525454005345474753
:10A76000455200000409002010B501461820484356
:10A77000B64C0219D3681069181A10BDFFB581B024
:10A7800004460E46174600BFB048483800780028F7
:10A7900001D1FFF7E7FD00BFAC4848380069A0428F
:10A7A00027D900BF002C1AD018206043A7493039A0
:10A7B0000E50182060434018476018216143A34A97
:10A7C000303A8918049888600022182060439F4915
:10A7D000303940180261182060434018C2601820C8
:10A7E00060439A4A303A80180A99416100BF0025B7
:10A7F00001E00025ED43284605B0F0BDFFB581B06E
:10A8000004460E46174600BF904848380078002896
:10A8100001D1FFF7A7FD00BF8C4848384069A0422E
:10A8200023D900BF002C17D01820604387490E5051
:10A83000182060434018476018216143834A8918F3
:10A840000498886000221820604380494018026103
:10A85000182060434018C260182060437B4A80186B
:10A860000A99416100BF002501E00025ED4328461B
:10A8700005B0F0BD70B504460E4600BF73484838B9
:10A880000078002801D1FFF76DFD00BF6F48483800
:10A890000069A04208D900BF182060436B493039D5
:10A8A0000E5000BF002501E00025ED43284670BD95
:10A8B00070B504460E4600BF64484838007800284A
:10A8C00001D1FFF74FFD00BF604848384069A04202
:10A8D00007D900BF182060435C490E5000BF002517
:10A8E00001E00025ED43284670BD10B500BF574874
:10A8F00048380078002801D1FFF734FD00BF10BDB3
:10A90000F8B5044600BF514848380078002801D106
:10A91000FFF728FD00BF0027FF2069460870102CB4
:10A9200022DA4B48005D4870484D303D00BF287D1D
:10A930008007800F022806D146480470022228466C
:10A94000FFF735FD0FE02846FFF7A3FD0646022E70
:10A9500007D340480470022269462846FFF764FD89
:10A9600001E00027FF4301E00027FF433846F8BD20
:10A97000F3B581B0074600BF344848380078002856
:10A9800001D1FFF7EFFC00BF102F5BDA2F48303802
:10A990000090029800F0A0FA064600BF0098FFF76A
:10A9A00078FD05460098007D8007800F002804D0C0
:10A9B000012817D0022840D12FE0301D854201D256
:10A9C00000240EE039460098FFF753FD3246029905
:10A9D0000098FFF7ECFC04461E4801780098FFF74A
:10A9E00048FD2DE0042D02D20024E44314E0394652
:10A9F0000098FFF73EFD281FB04201D9304600E025
:10AA0000281F024602990098FFF7D1FC044611481E
:10AA100001780098FFF72DFD12E039460098FFF706
:10AA200028FD324602990098FFF7C1FC0446094808
:10AA300001780098FFF71DFD02E00024E44300BF09
:10AA400000BF01E00024E4432046FEBD700D00205D
:10AA5000040900201409002001467D22D200084686
:10AA60005043002800D114E000BF00BF00BF00BF6A
:10AA700000BF00BF00BF00BF00BF724A1268724B28
:10AA80009A4200D101E000BF00BF401E00D0ECE7B9
:10AA900000BF704700214A1E01206C4BD8636C4BED
:10AAA000186000E0491C6B4800680028FAD06A482A
:10AAB0008142F7D367480068002801D1401E7047E3
:10AAC0000020644B1860654882680120604B586024
:10AAD00000205E4BD8631046F1E710B50021CA4351
:10AAE00000235F4C636003020B43636010BD10B52D
:10AAF0005B484069FF210902084359494861FF202A
:10AB0000FFF7EBFFFF20F530FFF7A6FF0020FFF770
:10AB1000E4FFFF20F530FFF79FFF10BD10B51424B0
:10AB20000BE0FF20FFF7D9FF6420FFF795FF00201F
:10AB3000FFF7D3FF6420FFF78FFF2046611ECCB2E2
:10AB40000028EED110BD10B50020002100BF0BE0A1
:10AB500001461031002205231B07072424021B197C
:10AB60008C001A51421CD0B20828F1DB10BD10B580
:10AB70003B480069000CC043C4B23A480078A04288
:10AB80000AD0224638A1284600F07CF82946002049
:10AB9000FFF79FFD33480470204610BD08B500BF85
:10ABA0001F2001210A4600231F46009354000C4336
:10ABB0009D002C433D022C43009D2D042C43052574
:10ABC0002D0707263602AD198600AC5100BF00BF25
:10ABD00000BF8140224A916000BFFF20F530FFF79F
:10ABE0003BFF1F20012181401D4AD16000BFFF2093
:10ABF000F530FFF731FFD3E71EA10020FFF769FD15
:10AC0000FFF775FFFFF79FFF00BF00201349486063
:10AC100000BF00BF0846806849150840002802D0E0
:10AC20000E48806801E00D48806800BF00BFFFF754
:10AC300075FF06E0FFF79BFF0446FFF74EFFFFF7A7
:10AC400029FFF7E7000900200024F400C0CF0040EE
:10AC500000C0004000C10040B888000000C50040AE
:10AC60000005005015090020307825303278680A38
:10AC70000000000048656C6C6F20576F726C642197
:10AC80000A0000000FB41CB5074B06AA7B446946B6
:10AC90000090059800F0E3F90020694600F0F2F911
:10ACA0001CBC08BC04B01847F503000070B504468E
:10ACB00085690068C10601D5302600E02026C0075E
:10ACC00007D070BD62683046A1689047206A401C7A
:10ACD00020626D1EF6D570BD70B50446856900789A
:10ACE000C00707D170BD6268A16820209047206A24
:10ACF000401C20626D1EF6D570BD000070B5044684
:10AD00000D4621461068C046C0462188090502D577
:10AD10000F4A7A4402E00E4A7A440E32234600215A
:10AD2000243305E006070009360F965D5E54491C82
:10AD30000028F7D120780023000705D5702D03D017
:10AD4000002901D002231132204600F02BF970BDFA
:10AD5000EA030000F3B50446002081B020622046DB
:10AD6000E168884700287DD0252802D06268A16864
:10AD700083E0454F00257F442046E168884720282E
:10AD8000064608DB312E06D2B81920380078002894
:10AD900001D00543F0E7A80701D504208543002032
:10ADA000E0610746A0612A2E0AD0304600F0A1F9E2
:10ADB000002827D0B8000019303E0090866119E0C5
:10ADC0000298BA00121902C8916102902046E16807
:10ADD0008847012F064617D1E06900281FDA202096
:10ADE00085431CE000980A21806948430099801936
:10ADF000303888612046E1688847064600F079F9D6
:10AE00000028EFD1012F0AD02E2E08D12046E1686C
:10AE100088470646202005437F1C022FC3DBA0691C
:10AE2000002803DA4042A06101200543E80701D071
:10AE300010208543002E24D030464138192803D8ED
:10AE40000120C00205432036204625603146029A83
:10AE50001546FFF773F900280CD0012807D0ED1D27
:10AE6000E80800E00DE0C0000830029077E72D1DF3
:10AE7000029574E762683046A1689047206A401CDA
:10AE80006CE7206AFEBD0000AE030000034670B50B
:10AE900002460B439B070FD10E4CE60100E008C2AF
:10AEA00008C91D1B9D433542F9D0D9B21170521CFF
:10AEB00000290DD01B0AF8E70B78491C1370521CAF
:10AEC000002B05D00B78491C1370521C002BF3D1BA
:10AED00070BD00000101010130B5441C03E00178A0
:10AEE000401C00290DD08107F9D10B4BDD0104C8AE
:10AEF000D11A91432940FAD0001B0A0603D0C01E84
:10AF000030BD001B30BD0A0401D0801E30BD0902D7
:10AF1000FCD0401E30BD000001010101F8B5042A3B
:10AF20002CD3830712D00B78491C0370401C521E8F
:10AF300083070BD00B78491C0370401C521E8307FB
:10AF400004D00B78491C0370401C521E8B079B0FCA
:10AF500005D0C91ADF002023DE1B08C90AE0FFF76D
:10AF600009F9F8BD1D4608C9FD401C46B4402C43F4
:10AF700010C0121F042AF5D2F308C91A521EF0D4C9
:10AF80000B78491C0370401C521EEAD40B78491CF4
:10AF90000370401C012AE4D409780170F8BD7047A1
:10AFA00070477047FFB504460D4681B024300090CD
:10AFB0002168880604D51022E0699143216000E0F1
:10AFC0000120A84201DD471B00E000270498A16989
:10AFD0007A191018081AA0612078C00602D42046F9
:10AFE000FFF764FE002608E003986268A168805DB0
:10AFF0009047206A401C761C206204988642F3DB4E
:10B000002078C0060AD52046FFF750FE06E06268A9
:10B01000A16830209047206A401C206238467F1E7D
:10B020000028F4DC07E000986268A168405D904762
:10B03000206A401C206228466D1E0028F3DC204652
:10B04000FFF74AFE2078000602D5022005B0F0BDC9
:10B050000120FBE701694A1C02610878704700B5CE
:10B060008FB0029100210591054901937944039124
:10B07000114604906846FFF76DFE0FB000BD00005A
:10B08000E5FFFFFF0A681070521C0A6070477546A2
:10B0900000F024F8AE46050069465346C008C000DB
:10B0A000854618B020B5FFF795F860BC0027490821
:10B0B000B6460026C0C5C0C5C0C5C0C5C0C5C0C550
:10B0C000C0C5C0C5403D49008D46704710B5044617
:10B0D000C046C0462046FFF746F810BD00487047FE
:10B0E000A00D002001491820ABBEFEE7260002009B
:10B0F000704730380A2801D201207047002070477D
:10B10000303132333435363738394142434445469D
:10B110004030580030313233343536373839616297
:10B120006364656640307800040000080000000099
:10B130000000000200010000100000005CB10000EF
:10B14000000900201800000004A1000074B10000F4
:10B1500018090020E814000020A100000024F400D9
:10B16000303132333435363738394142434445463D
:04B1700000000000DB
:040000050000A0C196
:00000001FF
