:020000040000FA
:10A00000381E0020F1A100000BA20000DFAD00000F
:10A010000000000000000000000000000000000040
:10A020000000000000000000000000000FA200007F
:10A03000000000000000000011A2000013A20000B8
:10A0400015A2000015A2000015A2000015A2000034
:10A0500015A200000000000015A2000015A20000DB
:10A0600015A2000015A2000015A2000015A2000014
:10A0700015A2000015A2000015A2000015A2000004
:10A0800015A2000015A2000015A2000015A20000F4
:10A0900015A2000015A2000015A20000D1AD00001D
:10A0A00015A2000015A20000000000000000000042
:10A0B00000000000000000000000000000000000A0
:10A0C00000F002F800F04BF80CA030C80838241853
:10A0D0002D18A246671EAB4654465D46AC4201D1E0
:10A0E00000F03DF87E460F3E0FCCB64601263342C7
:10A0F00000D0FB1AA246AB46334318473413000086
:10A1000054130000103A02D378C878C1FAD8520725
:10A1100001D330C830C101D504680C60704700001D
:10A120000023002400250026103A01D378C1FBD873
:10A13000520700D330C100D50B60704710B56429B9
:10A1400002D100F00BFF10BD782902D100F03CFFD6
:10A1500010BD002010BD1FB51FBD10B510BD01F012
:10A1600010F91146FFF7F7FF00F03FFE01F028F964
:10A1700003B4FFF7F2FF03BC01F02EF9401E00BF4D
:10A1800000BF00BF00BF00BF00BF00BF00BF00BFD7
:10A1900000BF00BF00BFF1D17047000070B5054699
:10A1A0000C46164602E00FCC0FC5103E102EFAD218
:10A1B000082E02D303CC03C5083E042E07D301CCDE
:10A1C00001C5361F03E021782970641C6D1C761EC2
:10A1D000F9D270BD01B505E00098401E009003481B
:10A1E000FFF7CCFF00980028F6D108BDE703000078
:10A1F00003210C4802680A4302600B4802680A43C4
:10A2000002600A4880470A480047FEE7FEE7FEE78B
:10A21000FEE7FEE7FEE7000006480749074A084B4D
:10A22000704700002405004054050040E9A20000EA
:10A23000C1A00000380E0020381E00203816002073
:10A240003816002032483349086070473248008C85
:10A25000C0B2012812D13048808C0007000F0028BE
:10A260000CD12D48806AF0210840402806D12A48A8
:10A27000C06A0840002801D1012070470020FCE797
:10A280002548008CC0B201282CD12348808C0007BF
:10A29000000F002826D12048806AF02108400028BD
:10A2A00006D11D48C06A0840002801D1012070472E
:10A2B0001948806AF0210840102806D11648C06A63
:10A2C0000840002801D10120F1E71348806AF021FD
:10A2D0000840302806D11048C06A0840002801D143
:10A2E0000120E4E70020E2E710B5FFF7C9FF0028EE
:10A2F00005D00A480A494860C8130A498861FFF72F
:10A30000A5FF002802D001200749886010BD000089
:10A310000024F40000090020C00F00F0DFFF07C098
:10A3200000050040006C00400006004010B5F64CEF
:10A33000022020616061F5A0A061F749E16101217F
:10A34000890221620021A1626162E162EFA0A06442
:10A35000F249E164102121650021A1656165E16593
:10A36000EFA1E01D00F0F8FEEEA1204600F0F4FEA3
:10A370002020A07110BDF7B582B00446174600201A
:10A380000190E56800BF206900900098A84203D9B9
:10A390000098401B461E04E0A1680098281A401C43
:10A3A0000E1AA068401BB04201D9304601E0A068F7
:10A3B000401B0646BE4201D2304600E03846064603
:10A3C000616848193246039900F00EFF0198801920
:10A3D0000190039880190390BF1BAD19A068A84293
:10A3E00000D10025E560002FCDD1019805B0F0BD6A
:10A3F000F7B582B004461546E668A068871BAF42F1
:10A4000008D9616888192A46039900F0EDFE701991
:10A41000E06010E0019761688819019A039900F0E3
:10A42000E3FEE81B0190039AD1196068019A00F0DD
:10A43000DBFE0198E06005B0F0BD38B505460C467E
:10A44000FF2168460170B948015D684641700222EB
:10A4500069462846FFF78FFF38BD10B501460A69E7
:10A46000CB689A4204D88C68641EE41AA01801E0F4
:10A47000D41A601E10BDF7B584B0174600BFA248BD
:10A480000078002801D1FFF751FF00BF1821049880
:10A4900048439D4948314618059801903569F06850
:10A4A0000290002003900298854219D9B068441B9D
:10A4B000BC4201D2204600E038460446706841198B
:10A4C0002246019800F090FE03980019039001982D
:10A4D000001901903F1B2D19B068A84200D100253A
:10A4E0000298441BBC4201D2204600E03846044694
:10A4F000002C0DD0706841192246019800F074FEBE
:10A500000398001903900198001901903F1B2D1921
:10A510000398002800D03561039807B0F0BDF8B566
:10A5200004460D46164600BF324629462046FFF730
:10A53000A2FF074600BF3846F8BDF7B584B01646FF
:10A54000059803901821049848436F49183144181E
:10A5500020690290E5680298A84236D8A068401E9B
:10A56000471BB7420AD3616848193246039900F085
:10A570003BFEA819E060012007B0F0BD02983F182B
:10A58000B74231D3A068401B01900198B04208D96E
:10A59000616848193246039900F026FEA819E06068
:10A5A00011E061684819019A039900F01DFE0198B5
:10A5B000321A019B0398C1186068009000F014FEE5
:10A5C0000198301AE0600120D6E70298401B471E30
:10A5D000B74209D3616848193246039900F004FE76
:10A5E000A819E0600120C7E70020C5E7F7B582B0F1
:10A5F00007461646039801901820784342491831BF
:10A600004018009000984069002804D0012811D01B
:10A61000022826D11EE00098FFF71FFF0546B5422D
:10A6200001D2002405E03446324601990098FFF734
:10A63000DFFE18E00098FFF710FF0546B54201D293
:10A64000284600E030460446224601990098FFF76C
:10A65000CFFE08E0324601990098FFF78CFE0446D1
:10A6600001E0002400BF00BF204605B0F0BDF8B5F2
:10A6700004460D46164600BF23480078002801D145
:10A68000FFF754FE00BF00BF324629462046FFF7C1
:10A69000ADFF074600BF3846F8BD70B505460C460D
:10A6A000204600F07FFD0646324621462846FFF749
:10A6B000DEFF70BD38B5012269460020FFF72FFF8D
:10A6C0000446012C02D16846047801E00024E443EA
:10A6D000204638BD10B500BFFFF7ECFF0028FBDBBC
:10A6E00010BD70B500BF08480078002801D1FFF701
:10A6F0001DFE00BF0448856D406DA84201D00124B5
:10A7000000E00024204670BD3C0D00205465726DB1
:10A71000696E616C000000002C0900202C0D0020E7
:10A720005254540053454747455200000409002045
:10A7300010B5014618204843B64C0219D368106979
:10A74000181A10BDFFB581B004460E46174600BF6B
:10A75000B04848380078002801D1FFF7E7FD00BF76
:10A76000AC4848380069A04227D900BF002C1AD055
:10A7700018206043A74930390E5018206043401814
:10A78000476018216143A34A303A891804988860C9
:10A790000022182060439F49303940180261182078
:10A7A00060434018C260182060439A4A303A8018CB
:10A7B0000A99416100BF002501E00025ED432846CC
:10A7C00005B0F0BDFFB581B004460E46174600BF88
:10A7D000904848380078002801D1FFF7A7FD00BF56
:10A7E0008C4848384069A04223D900BF002C17D0BC
:10A7F0001820604387490E50182060434018476076
:10A8000018216143834A891804988860002218201F
:10A810006043804940180261182060434018C260BC
:10A82000182060437B4A80180A99416100BF0025C7
:10A8300001E00025ED43284605B0F0BD70B50446A3
:10A840000E4600BF734848380078002801D1FFF752
:10A850006DFD00BF6F4848380069A04208D900BFAD
:10A86000182060436B4930390E5000BF002501E0CD
:10A870000025ED43284670BD70B504460E4600BF66
:10A88000644848380078002801D1FFF74FFD00BF29
:10A89000604848384069A04207D900BF182060438B
:10A8A0005C490E5000BF002501E00025ED4328461D
:10A8B00070BD10B500BF574848380078002801D156
:10A8C000FFF734FD00BF10BDF8B5044600BF514886
:10A8D00048380078002801D1FFF728FD00BF002785
:10A8E000FF2069460870102C22DA4B48005D487042
:10A8F000484D303D00BF287D8007800F022806D1DB
:10A900004648047002222846FFF735FD0FE028462E
:10A91000FFF7A3FD0646022E07D34048047002222B
:10A9200069462846FFF764FD01E00027FF4301E088
:10A930000027FF433846F8BDF3B581B0074600BF96
:10A94000344848380078002801D1FFF7EFFC00BFF9
:10A95000102F5BDA2F4830380090029800F022FC6C
:10A96000064600BF0098FFF778FD05460098007D79
:10A970008007800F002804D0012817D0022840D17A
:10A980002FE0301D854201D200240EE039460098A8
:10A99000FFF753FD324602990098FFF7ECFC04469E
:10A9A0001E4801780098FFF748FD2DE0042D02D2E3
:10A9B0000024E44314E039460098FFF73EFD281FC9
:10A9C000B04201D9304600E0281F024602990098A3
:10A9D000FFF7D1FC0446114801780098FFF72DFDE0
:10A9E00012E039460098FFF728FD32460299009898
:10A9F000FFF7C1FC0446094801780098FFF71DFDE8
:10AA000002E00024E44300BF00BF01E00024E4436F
:10AA10002046FEBD840D00200409002014090020FA
:10AA200010B50021CA4300237F4C636003020B432F
:10AA300063600302636010BD10B57B484069FF216D
:10AA40000902084378494861FF20FFF7E9FFFF202A
:10AA5000F530FFF7BFFB0020FFF7E2FFFF20F530E6
:10AA6000FFF7B8FB10BD10B5FF20FFF7D9FF32206C
:10AA7000FFF7B0FB0020FFF7D3FF10BD10B5044671
:10AA80000BE0FF20FFF7CCFF6420FFF7A3FB0020C3
:10AA9000FFF7C6FF6420FFF79DFB2046611ECCB286
:10AAA0000028EED110BD10B50020002100BF0BE042
:10AAB00001461031002205231B07072424021B191D
:10AAC0008C001A51421CD0B20828F1DB10BD10B521
:10AAD00094B055480069000CC043C4B25348007894
:10AAE000A0420DD0224652A1684600F0F9F969460D
:10AAF0000020FFF7D2FD4D48047001205249087034
:10AB0000204614B010BD10B550A10020FFF7C5FDC0
:10AB1000FFF792FFFFF7C7FF10BD30B585B00446C1
:10AB200054480078844211D0224653A1684600F070
:10AB3000D7F90546002D03D153A1FFF7AEFD03E081
:10AB400069460020FFF7A9FD4A48047005B030BDF2
:10AB500030B585B00446224652A1684600F0C0F9DF
:10AB60000546002D03D148A1FFF797FD03E0694694
:10AB70000020FFF792FD05B030BD01204C49086070
:10AB800000204C49086000BF4A4800680028FBD0FC
:10AB900049488068C0B2704700BF002047494860FC
:10ABA00000BF704770B500256C1E01204049403938
:10ABB000C8634349086000E06D1C424800680028F3
:10ABC00002D141488542F7D33E480068002801D1B0
:10ABD000401E70BD00203B49086000BF37488068B8
:10ABE00049150840002804D0344880683749084394
:10ABF00001E0324880680446012031494860002065
:10AC00002B494039C86332480068A0420AD0224626
:10AC100030A1304600F064F931460020FFF73DFDD9
:10AC20002B4804602046D4E7000500501A09002094
:10AC3000425554544F4E5320726561643A20307827
:10AC400025303278680A00001909002053656767CB
:10AC500065722052545420436F6E736F6C652030C0
:10AC60002C206E726635313432322044656275674D
:10AC70002E0A00001B09002056616C75653A2030D1
:10AC80007825303278680A00436F756C646E7420E2
:10AC9000777269746520746F20737472696E672EA1
:10ACA0000A0000003078253032786820000000006B
:10ACB00000D0004000D1004000D5004000C5004059
:10ACC00000C0004000C10040B888000000FCFFFF49
:10ACD0001C09002054454D503A2025640A0000000C
:10ACE00000BFFEE710B500231A461946184652DF8A
:10ACF000044600BF2346002B05D000BF68A25E219A
:10AD00001846FFF7EDFF00BF00231A461946184604
:10AD100063DF044600BF2346002B05D000BF60A2BE
:10AD200065211846FFF7DCFF00BF002054DF044612
:10AD300000BF2346002B05D000BF59A26921184649
:10AD4000FFF7CEFF00BF10BD10B557480078574938
:10AD500088700A460821002057DF044600BF2346BA
:10AD6000002B05D000BF4EA275211846FFF7B8FF93
:10AD700000BF10BD70B50546032D14D14A480078B8
:10AD80004A4988700A460821002057DF044600BF60
:10AD90002346002B05D000BF41A28F211846FFF7A4
:10ADA0009FFF00BF00E000BF00BF70BD10B50446AC
:10ADB00060784E2805D160793B490870FFF7C4FFE1
:10ADC00000E000BF00BF38480078FFF7A6FE10BDC6
:10ADD000704700BF36A10020FFF75FFCFAE700BF15
:10ADE00038A10020FFF759FCFAE71CB53A490720C3
:10ADF00010DF044600BF2346002B05D000BF28A269
:10AE0000DC211846FFF76CFF00BF0321172028DF65
:10AE1000044600BF2346002B05D000BF20A2E0213E
:10AE20001846FFF75DFF00BF172023DF044600BF71
:10AE30002346002B05D000BF19A2E4211846FFF7D6
:10AE40004FFF00BFFFF74EFF00BF3DDF044600BFCE
:10AE50002346002B05D000BF11A2F1211846FFF7B1
:10AE60003FFF00BF00BF1D4A01A9684651DF0446ED
:10AE7000002C11D168460079032802D0802809D11E
:10AE800004E068460079FFF775FF04E01348FFF718
:10AE90008DFF00E000BF00BF002CE4D0D5E700002C
:10AEA000536C6176652E630028090020200900207C
:10AEB0004173736572742063616C6C6261636B2EA5
:10AEC0000A00000048617264206661756C74206F2E
:10AED0006363757265640A00D3AD0000B40D002091
:10AEE0000FB41CB5084B06AA7B4469460090059830
:10AEF00000F01BFA04460020694600F029FA2046BB
:10AF00001CBC08BC04B018476504000070B50446BA
:10AF100085690068C10601D5302600E02026C007FB
:10AF200007D070BD62683046A1689047206A401C17
:10AF300020626D1EF6D570BD70B504468569007837
:10AF4000C00707D170BD6268A16820209047206AC1
:10AF5000401C20626D1EF6D570BD0000F7B50025BF
:10AF600075291068009914A611D0C046C046002863
:10AF700002DA404211A608E0009909688A0701D563
:10AF80000FA602E0490704D50EA6012501E0C04640
:10AF9000C046009F0024243704E000F0DEF9303181
:10AFA0003955641C0028F8D12B46324621460098BA
:10AFB00000F05EF9FEBD0000000000002D00000062
:10AFC0002B0000002000000070B504460D4621460D
:10AFD0001068C046C0462188090502D50F4A7A4448
:10AFE00002E00E4A7A440E3223460021243305E063
:10AFF00006070009360F965D5E54491C0028F7D1FC
:10B0000020780023000705D5702D03D0002901D03A
:10B0100002231132204600F02BF970BD120400000B
:10B02000F3B50446002081B020622046E1688847DD
:10B0300000287DD0252802D06268A16883E0454FB2
:10B0400000257F442046E16888472028064608DB23
:10B05000312E06D2B81920380078002801D00543D7
:10B06000F0E7A80701D5042085430020E0610746EA
:10B07000A0612A2E0AD0304600F0B5F9002827D06A
:10B08000B8000019303E0090866119E00298BA00BD
:10B09000121902C8916102902046E1688847012F89
:10B0A000064617D1E06900281FDA202085431CE0FE
:10B0B00000980A21806948430099801930388861D6
:10B0C0002046E1688847064600F08DF90028EFD158
:10B0D000012F0AD02E2E08D12046E1688847064667
:10B0E000202005437F1C022FC3DBA069002803DA60
:10B0F0004042A06101200543E80701D010208543AC
:10B10000002E24D030464138192803D80120C0022F
:10B1100005432036204625603146029A1546FFF742
:10B120000DF800280CD0012807D0ED1DE80800E03C
:10B130000DE0C0000830029077E72D1D029574E7FE
:10B1400062683046A1689047206A401C6CE7206A1C
:10B15000FEBD0000D6030000034670B502460B4357
:10B160009B070FD10E4CE60100E008C208C91D1B69
:10B170009D433542F9D0D9B21170521C00290DD02F
:10B180001B0AF8E70B78491C1370521C002B05D0E2
:10B190000B78491C1370521C002BF3D170BD0000BA
:10B1A0000101010130B5441C03E00178401C002975
:10B1B0000DD08107F9D10B4BDD0104C8D11A9143A1
:10B1C0002940FAD0001B0A0603D0C01E30BD001B68
:10B1D00030BD0A0401D0801E30BD0902FCD0401EE3
:10B1E00030BD000001010101F8B5042A2CD383070A
:10B1F00012D00B78491C0370401C521E83070BD0E1
:10B200000B78491C0370401C521E830704D00B7836
:10B21000491C0370401C521E8B079B0F05D0C91A96
:10B22000DF002023DE1B08C90AE0FEF7B7FFF8BDE8
:10B230001D4608C9FD401C46B4402C4310C0121FD7
:10B24000042AF5D2F308C91A521EF0D40B78491C0F
:10B250000370401C521EEAD40B78491C0370401C3A
:10B26000012AE4D409780170F8BD7047704770472F
:10B27000FFB504460D4681B0243000902168880651
:10B2800004D51022E0699143216000E00120A8422A
:10B2900001DD471B00E000270498A1697A19101806
:10B2A000081AA0612078C00602D42046FFF72EFEBF
:10B2B000002608E003986268A168805D9047206AD4
:10B2C000401C761C206204988642F3DB2078C0067E
:10B2D0000AD52046FFF71AFE06E06268A168302012
:10B2E0009047206A401C206238467F1E0028F4DC0C
:10B2F00007E000986268A168405D9047206A401CA2
:10B30000206228466D1E0028F3DC2046FFF714FE5D
:10B310002078000602D5022005B0F0BD0120FBE731
:10B3200001694A1C02610878704700B58FB002912C
:10B330000021059105490193794403911146049038
:10B340006846FFF76DFE0FB000BD0000E5FFFFFF90
:10B350000A681070521C0A60704701468008081A7B
:10B3600002091018020A1018020C1018C0088200F6
:10B3700012185200891A01E0401C0A390A29FBD22E
:10B380007047754600F024F8AE46050069465346FE
:10B39000C008C000854618B020B5FEF73DFF60BC70
:10B3A00000274908B6460026C0C5C0C5C0C5C0C5EF
:10B3B000C0C5C0C5C0C5C0C5403D49008D46704729
:10B3C00010B50446C046C0462046FEF7D1FE10BD6B
:10B3D00000487047D40D002001491820ABBEFEE79D
:10B3E00026000200704730380A2801D20120704739
:10B3F00000207047303132333435363738394142E6
:10B4000043444546403058003031323334353637C6
:10B410003839616263646566403078000400000872
:10B420000000000000000002000100001000000009
:10B4300050B40000000900202C00000004A100000E
:10B440007CB400002C0900200C15000020A1000095
:10B450000024F40030313233343536373839414244
:10B4600043444546000000000000000000000000CA
:0CB47000000000000000000000000000D0
:040000050000A0C196
:00000001FF
