:020000040000FA
:10A00000001E002079A4000093A4000095A4000085
:10A010000000000000000000000000000000000040
:10A0200000000000000000000000000097A40000F5
:10A03000000000000000000099A400009BA40000A4
:10A040009DA400009DA400009DA400009DA400000C
:10A050009DA40000000000009DA400009DA400003D
:10A060009DA400009DA400009DA400009DA40000EC
:10A070009DA400009DA400009DA400009DA40000DC
:10A080009DA400009DA400009DA400009DA40000CC
:10A090009DA400009DA400009DA400009DA40000BC
:10A0A0009DA400009DA4000000000000000000002E
:10A0B00000000000000000000000000000000000A0
:10A0C00000F002F800F03EF80CA030C80838241860
:10A0D0002D18A246671EAB4654465D46AC4201D1E0
:10A0E00000F030F87E460F3E0FCCB64601263342D4
:10A0F00000D0FB1AA246AB4633431847440C00007D
:10A10000640C0000103A02D378C878C1FAD852071C
:10A1100001D330C830C101D504680C60704700001D
:10A120000023002400250026103A01D378C1FBD873
:10A13000520700D330C100D50B6070471FB51FBD5B
:10A1400010B510BD00F0C8FD1146FFF7F7FF00F095
:10A15000ACF800F0E0FD03B4FFF7F2FF03BC00F041
:10A16000E7FD000070B505460C46164602E00FCC30
:10A170000FC5103E102EFAD2082E02D303CC03C511
:10A18000083E042E07D301CC01C5361F03E0217819
:10A190002970641C6D1C761EF9D270BD01467D22AB
:10A1A000D20008465043002800D114E000BF00BF91
:10A1B00000BF00BF00BF00BF00BF00BF00BF4D4ACF
:10A1C00012684D4B9A4200D101E000BF00BF401E13
:10A1D00000D0ECE700BF7047FF2000064749486108
:10A1E00048600020486070470106444A516070474B
:10A1F00010B514240BE0FF20FFF7F6FF6420FFF7F3
:10A20000CDFF0020FFF7F0FF6420FFF7C7FF2046D7
:10A21000611ECCB20028EED110BD10B50020002187
:10A2200000BF0BE001461031002205231B07072465
:10A2300024021B198C001A51421CD0B20828F1DBF1
:10A2400010BD2E480069000CC043C0B2704708B56D
:10A2500000BF1F2001210A4600231F46009354001F
:10A260000C439D002C433D022C43009D2D042C43A8
:10A2700005252D0707263602AD198600AC5100BF13
:10A2800000BF00BF81401D4A916000BFFF20F53034
:10A29000FFF784FF1F2001218140184AD16000BFD1
:10A2A000FF20F530FFF77AFFD3E715A1002000F07B
:10A2B000C4FAFFF791FFFFF7B0FF00BF0020144979
:10A2C000486000BF00BF0846806849150840002864
:10A2D00002D00F48806801E00D48806800BF00BFD1
:10A2E000FFF786FF04E0FFF7ACFF0346FFF77CFFB4
:10A2F000F9E70000000900200024F40000050050E8
:10A3000048656C6C6F20576F726C64210A00000006
:10A3100000C500404F485049086070474F48008CC6
:10A32000C0B201281FD14D48808C0007000F0028C3
:10A3300019D14A48806AF0210840A02806D1474830
:10A34000C06A0840002801D1012070474348806A54
:10A35000F0210840D02806D14048C06A08400028B3
:10A3600001D10120F1E70020EFE73C48008CC0B2AA
:10A37000012812D13948808C0007000F00280CD129
:10A380003648806AF0210840402806D13348C06A28
:10A390000840002801D1012070470020FCE72F4829
:10A3A000008CC0B201282CD12C48808C0007000FF3
:10A3B000002826D12948806AF0210840002806D1CB
:10A3C0002648C06A0840002801D101207047234870
:10A3D000806AF0210840102806D12048C06A084051
:10A3E000002801D10120F1E71C48806AF0210840D3
:10A3F000302806D11948C06A0840002801D1012040
:10A40000E4E70020E2E710B5FFF7C9FF002805D018
:10A41000134814494860C81313498861FFF7A5FF22
:10A42000002802D0012011498860FFF777FF00283B
:10A430000ED00F480068012807D00E480C4908606C
:10A4400000BF0B4800680128FBD1C02008494861C3
:10A4500010BD00000024F40000090020C00F00F02F
:10A46000DFFF07C000050040006C00400006004010
:10A4700000EC06407593000003210C4802680A4373
:10A4800002600B4802680A4302600A4880470A4893
:10A490000047FEE7FEE7FEE7FEE7FEE7FEE7000017
:10A4A00006480749074A084B70470000240500404A
:10A4B0005405004007A40000C1A00000000E0020C9
:10A4C000001E0020001600200016002010B5F64CDB
:10A4D000022020616061F5A0A061F749E1610121DE
:10A4E000890221620021A1626162E162EFA0A064A1
:10A4F000F249E164102121650021A1656165E165F2
:10A50000EFA1E01D00F05CFBEEA1204600F058FB3F
:10A510002020A07110BDF7B582B004461746002078
:10A520000190E56800BF206900900098A84203D917
:10A530000098401B461E04E0A1680098281A401CA1
:10A540000E1AA068401BB04201D9304601E0A06855
:10A55000401B0646BE4201D2304600E03846064661
:10A56000616848193246039900F072FB019880191E
:10A570000190039880190390BF1BAD19A068A842F1
:10A5800000D10025E560002FCDD1019805B0F0BDC8
:10A59000F7B582B004461546E668A068871BAF424F
:10A5A00008D9616888192A46039900F051FB70198F
:10A5B000E06010E0019761688819019A039900F042
:10A5C00047FBE81B0190039AD1196068019A00F0DB
:10A5D0003FFB0198E06005B0F0BD38B505460C467C
:10A5E000FF2168460170B948015D6846417002224A
:10A5F00069462846FFF78FFF38BD10B501460A6946
:10A60000CB689A4204D88C68641EE41AA01801E052
:10A61000D41A601E10BDF7B584B0174600BFA2481B
:10A620000078002801D1FFF751FF00BF18210498DE
:10A6300048439D4948314618059801903569F068AE
:10A640000290002003900298854219D9B068441BFB
:10A65000BC4201D2204600E03846044670684119E9
:10A660002246019800F0F4FA03980019039001982B
:10A67000001901903F1B2D19B068A84200D1002598
:10A680000298441BBC4201D2204600E038460446F2
:10A69000002C0DD0706841192246019800F0D8FABC
:10A6A0000398001903900198001901903F1B2D1980
:10A6B0000398002800D03561039807B0F0BDF8B5C5
:10A6C00004460D46164600BF324629462046FFF78F
:10A6D000A2FF074600BF3846F8BDF7B584B016465E
:10A6E000059803901821049848436F49183144187D
:10A6F00020690290E5680298A84236D8A068401EFA
:10A70000471BB7420AD3616848193246039900F0E3
:10A710009FFAA819E060012007B0F0BD02983F1829
:10A72000B74231D3A068401B01900198B04208D9CC
:10A73000616848193246039900F08AFAA819E06066
:10A7400011E061684819019A039900F081FA0198B3
:10A75000321A019B0398C1186068009000F078FAE3
:10A760000198301AE0600120D6E70298401B471E8E
:10A77000B74209D3616848193246039900F068FA74
:10A78000A819E0600120C7E70020C5E7F7B582B04F
:10A79000074616460398019018207843424918311D
:10A7A0004018009000984069002804D0012811D07A
:10A7B000022826D11EE00098FFF71FFF0546B5428C
:10A7C00001D2002405E03446324601990098FFF793
:10A7D000DFFE18E00098FFF710FF0546B54201D2F2
:10A7E000284600E030460446224601990098FFF7CB
:10A7F000CFFE08E0324601990098FFF78CFE044630
:10A8000001E0002400BF00BF204605B0F0BDF8B550
:10A8100004460D46164600BF23480078002801D1A3
:10A82000FFF754FE00BF00BF324629462046FFF71F
:10A83000ADFF074600BF3846F8BD70B505460C466B
:10A84000204600F0E3F90646324621462846FFF747
:10A85000DEFF70BD38B5012269460020FFF72FFFEB
:10A860000446012C02D16846047801E00024E44348
:10A87000204638BD10B500BFFFF7ECFF0028FBDB1A
:10A8800010BD70B500BF08480078002801D1FFF75F
:10A890001DFE00BF0448856D406DA84201D0012413
:10A8A00000E00024204670BD280D00205465726D24
:10A8B000696E616C0000000018090020180D00206E
:10A8C00052545400534547474552000004090020A4
:10A8D00010B5014618204843B64C0219D3681069D8
:10A8E000181A10BDFFB581B004460E46174600BFCA
:10A8F000B04848380078002801D1FFF7E7FD00BFD5
:10A90000AC4848380069A04227D900BF002C1AD0B3
:10A9100018206043A74930390E5018206043401872
:10A92000476018216143A34A303A89180498886027
:10A930000022182060439F493039401802611820D6
:10A9400060434018C260182060439A4A303A801829
:10A950000A99416100BF002501E00025ED4328462A
:10A9600005B0F0BDFFB581B004460E46174600BFE6
:10A97000904848380078002801D1FFF7A7FD00BFB4
:10A980008C4848384069A04223D900BF002C17D01A
:10A990001820604387490E501820604340184760D4
:10A9A00018216143834A891804988860002218207E
:10A9B0006043804940180261182060434018C2601B
:10A9C000182060437B4A80180A99416100BF002526
:10A9D00001E00025ED43284605B0F0BD70B5044602
:10A9E0000E4600BF734848380078002801D1FFF7B1
:10A9F0006DFD00BF6F4848380069A04208D900BF0C
:10AA0000182060436B4930390E5000BF002501E02B
:10AA10000025ED43284670BD70B504460E4600BFC4
:10AA2000644848380078002801D1FFF74FFD00BF87
:10AA3000604848384069A04207D900BF18206043E9
:10AA40005C490E5000BF002501E00025ED4328467B
:10AA500070BD10B500BF574848380078002801D1B4
:10AA6000FFF734FD00BF10BDF8B5044600BF5148E4
:10AA700048380078002801D1FFF728FD00BF0027E3
:10AA8000FF2069460870102C22DA4B48005D4870A0
:10AA9000484D303D00BF287D8007800F022806D139
:10AAA0004648047002222846FFF735FD0FE028468D
:10AAB000FFF7A3FD0646022E07D34048047002228A
:10AAC00069462846FFF764FD01E00027FF4301E0E7
:10AAD0000027FF433846F8BDF3B581B0074600BFF5
:10AAE000344848380078002801D1FFF7EFFC00BF58
:10AAF000102F5BDA2F4830380090029800F086F86B
:10AB0000064600BF0098FFF778FD05460098007DD7
:10AB10008007800F002804D0012817D0022840D1D8
:10AB20002FE0301D854201D200240EE03946009806
:10AB3000FFF753FD324602990098FFF7ECFC0446FC
:10AB40001E4801780098FFF748FD2DE0042D02D241
:10AB50000024E44314E039460098FFF73EFD281F27
:10AB6000B04201D9304600E0281F02460299009801
:10AB7000FFF7D1FC0446114801780098FFF72DFD3E
:10AB800012E039460098FFF728FD324602990098F6
:10AB9000FFF7C1FC0446094801780098FFF71DFD46
:10ABA00002E00024E44300BF00BF01E00024E443CE
:10ABB0002046FEBD700D002004090020140900206D
:10ABC000034670B502460B439B070FD10E4CE601BE
:10ABD00000E008C208C91D1B9D433542F9D0D9B217
:10ABE0001170521C00290DD01B0AF8E70B78491C84
:10ABF0001370521C002B05D00B78491C1370521C8B
:10AC0000002BF3D170BD00000101010130B5441CDF
:10AC100003E00178401C00290DD08107F9D10B4BCE
:10AC2000DD0104C8D11A91432940FAD0001B0A065D
:10AC300003D0C01E30BD001B30BD0A0401D0801EF1
:10AC400030BD0902FCD0401E30BD000001010101F1
:10AC5000F8B5042A2CD3830712D00B78491C037053
:10AC6000401C521E83070BD00B78491C0370401CFC
:10AC7000521E830704D00B78491C0370401C521EDF
:10AC80008B079B0F05D0C91ADF002023DE1B08C9E4
:10AC90000AE0FFF767FAF8BD1D4608C9FD401C46EB
:10ACA000B4402C4310C0121F042AF5D2F308C91A6D
:10ACB000521EF0D40B78491C0370401C521EEAD47B
:10ACC0000B78491C0370401C012AE4D409780170F8
:10ACD000F8BD704770477047754600F025F8AE46DE
:10ACE000050069465346C008C000854618B020B527
:10ACF000FFF7D6FB60BC00274908B6460026C0C552
:10AD0000C0C5C0C5C0C5C0C5C0C5C0C5C0C5403D23
:10AD100049008D46704710B50446C046C0462046DF
:10AD2000FFF719FA10BD000000487047A00D002081
:10AD300001491820ABBEFEE7260002007047000064
:10AD400060AD0000000900201800000004A1000010
:10AD500078AD000018090020E814000020A10000D0
:10AD60000024F4003031323334353637383941423B
:08AD70004344454600000000C9
:040000050000A0C196
:00000001FF
